{
  "_format": "hh-sol-artifact-1",
  "contractName": "RandomWords",
  "sourceName": "contracts/RandomWords.sol",
  "abi": [
    {
      "inputs": [],
      "stateMutability": "nonpayable",
      "type": "constructor"
    },
    {
      "anonymous": false,
      "inputs": [
        {
          "indexed": true,
          "internalType": "address",
          "name": "owner",
          "type": "address"
        },
        {
          "indexed": true,
          "internalType": "address",
          "name": "approved",
          "type": "address"
        },
        {
          "indexed": true,
          "internalType": "uint256",
          "name": "tokenId",
          "type": "uint256"
        }
      ],
      "name": "Approval",
      "type": "event"
    },
    {
      "anonymous": false,
      "inputs": [
        {
          "indexed": true,
          "internalType": "address",
          "name": "owner",
          "type": "address"
        },
        {
          "indexed": true,
          "internalType": "address",
          "name": "operator",
          "type": "address"
        },
        {
          "indexed": false,
          "internalType": "bool",
          "name": "approved",
          "type": "bool"
        }
      ],
      "name": "ApprovalForAll",
      "type": "event"
    },
    {
      "anonymous": false,
      "inputs": [
        {
          "indexed": false,
          "internalType": "address",
          "name": "sender",
          "type": "address"
        },
        {
          "indexed": false,
          "internalType": "uint256",
          "name": "tokenID",
          "type": "uint256"
        }
      ],
      "name": "NFTminted",
      "type": "event"
    },
    {
      "anonymous": false,
      "inputs": [
        {
          "indexed": true,
          "internalType": "address",
          "name": "from",
          "type": "address"
        },
        {
          "indexed": true,
          "internalType": "address",
          "name": "to",
          "type": "address"
        },
        {
          "indexed": true,
          "internalType": "uint256",
          "name": "tokenId",
          "type": "uint256"
        }
      ],
      "name": "Transfer",
      "type": "event"
    },
    {
      "inputs": [
        {
          "internalType": "address",
          "name": "to",
          "type": "address"
        },
        {
          "internalType": "uint256",
          "name": "tokenId",
          "type": "uint256"
        }
      ],
      "name": "approve",
      "outputs": [],
      "stateMutability": "nonpayable",
      "type": "function"
    },
    {
      "inputs": [
        {
          "internalType": "address",
          "name": "owner",
          "type": "address"
        }
      ],
      "name": "balanceOf",
      "outputs": [
        {
          "internalType": "uint256",
          "name": "",
          "type": "uint256"
        }
      ],
      "stateMutability": "view",
      "type": "function"
    },
    {
      "inputs": [
        {
          "internalType": "uint256",
          "name": "tokenId",
          "type": "uint256"
        }
      ],
      "name": "getApproved",
      "outputs": [
        {
          "internalType": "address",
          "name": "",
          "type": "address"
        }
      ],
      "stateMutability": "view",
      "type": "function"
    },
    {
      "inputs": [
        {
          "internalType": "address",
          "name": "owner",
          "type": "address"
        },
        {
          "internalType": "address",
          "name": "operator",
          "type": "address"
        }
      ],
      "name": "isApprovedForAll",
      "outputs": [
        {
          "internalType": "bool",
          "name": "",
          "type": "bool"
        }
      ],
      "stateMutability": "view",
      "type": "function"
    },
    {
      "inputs": [],
      "name": "mint",
      "outputs": [],
      "stateMutability": "nonpayable",
      "type": "function"
    },
    {
      "inputs": [],
      "name": "name",
      "outputs": [
        {
          "internalType": "string",
          "name": "",
          "type": "string"
        }
      ],
      "stateMutability": "view",
      "type": "function"
    },
    {
      "inputs": [
        {
          "internalType": "uint256",
          "name": "tokenId",
          "type": "uint256"
        }
      ],
      "name": "ownerOf",
      "outputs": [
        {
          "internalType": "address",
          "name": "",
          "type": "address"
        }
      ],
      "stateMutability": "view",
      "type": "function"
    },
    {
      "inputs": [
        {
          "internalType": "uint256",
          "name": "tokenId",
          "type": "uint256"
        }
      ],
      "name": "pickRandomWord",
      "outputs": [
        {
          "internalType": "string",
          "name": "",
          "type": "string"
        }
      ],
      "stateMutability": "view",
      "type": "function"
    },
    {
      "inputs": [
        {
          "internalType": "address",
          "name": "from",
          "type": "address"
        },
        {
          "internalType": "address",
          "name": "to",
          "type": "address"
        },
        {
          "internalType": "uint256",
          "name": "tokenId",
          "type": "uint256"
        }
      ],
      "name": "safeTransferFrom",
      "outputs": [],
      "stateMutability": "nonpayable",
      "type": "function"
    },
    {
      "inputs": [
        {
          "internalType": "address",
          "name": "from",
          "type": "address"
        },
        {
          "internalType": "address",
          "name": "to",
          "type": "address"
        },
        {
          "internalType": "uint256",
          "name": "tokenId",
          "type": "uint256"
        },
        {
          "internalType": "bytes",
          "name": "data",
          "type": "bytes"
        }
      ],
      "name": "safeTransferFrom",
      "outputs": [],
      "stateMutability": "nonpayable",
      "type": "function"
    },
    {
      "inputs": [
        {
          "internalType": "address",
          "name": "operator",
          "type": "address"
        },
        {
          "internalType": "bool",
          "name": "approved",
          "type": "bool"
        }
      ],
      "name": "setApprovalForAll",
      "outputs": [],
      "stateMutability": "nonpayable",
      "type": "function"
    },
    {
      "inputs": [
        {
          "internalType": "bytes4",
          "name": "interfaceId",
          "type": "bytes4"
        }
      ],
      "name": "supportsInterface",
      "outputs": [
        {
          "internalType": "bool",
          "name": "",
          "type": "bool"
        }
      ],
      "stateMutability": "view",
      "type": "function"
    },
    {
      "inputs": [],
      "name": "symbol",
      "outputs": [
        {
          "internalType": "string",
          "name": "",
          "type": "string"
        }
      ],
      "stateMutability": "view",
      "type": "function"
    },
    {
      "inputs": [
        {
          "internalType": "uint256",
          "name": "tokenId",
          "type": "uint256"
        }
      ],
      "name": "tokenURI",
      "outputs": [
        {
          "internalType": "string",
          "name": "",
          "type": "string"
        }
      ],
      "stateMutability": "view",
      "type": "function"
    },
    {
      "inputs": [
        {
          "internalType": "address",
          "name": "from",
          "type": "address"
        },
        {
          "internalType": "address",
          "name": "to",
          "type": "address"
        },
        {
          "internalType": "uint256",
          "name": "tokenId",
          "type": "uint256"
        }
      ],
      "name": "transferFrom",
      "outputs": [],
      "stateMutability": "nonpayable",
      "type": "function"
    }
  ],
  "bytecode": "0x608060405260405180610160016040528061012f8152602001620036a261012f91396008908051906020019062000038929190620004f5565b506040518061022001604052806040518060400160405280600681526020017f42616e616e61000000000000000000000000000000000000000000000000000081525081526020016040518060400160405280600581526020017f4170706c6500000000000000000000000000000000000000000000000000000081525081526020016040518060400160405280600981526020017f4d6f746f7262696b65000000000000000000000000000000000000000000000081525081526020016040518060400160405280600381526020017f446f67000000000000000000000000000000000000000000000000000000000081525081526020016040518060400160405280600981526020017f4d696e656372616674000000000000000000000000000000000000000000000081525081526020016040518060400160405280600881526020017f457468657265756d00000000000000000000000000000000000000000000000081525081526020016040518060400160405280600681526020017f536f6c616e61000000000000000000000000000000000000000000000000000081525081526020016040518060400160405280600681526020017f4c697a617264000000000000000000000000000000000000000000000000000081525081526020016040518060400160405280600581526020017f477265656e00000000000000000000000000000000000000000000000000000081525081526020016040518060400160405280600481526020017f547265650000000000000000000000000000000000000000000000000000000081525081526020016040518060400160405280600581526020017f506561636800000000000000000000000000000000000000000000000000000081525081526020016040518060400160405280600581526020017f426561636800000000000000000000000000000000000000000000000000000081525081526020016040518060400160405280600481526020017f50616c6d0000000000000000000000000000000000000000000000000000000081525081526020016040518060400160405280600481526020017f536869700000000000000000000000000000000000000000000000000000000081525081526020016040518060400160405280600681526020017f506972617465000000000000000000000000000000000000000000000000000081525081526020016040518060400160405280600a81526020017f556e69766572736974790000000000000000000000000000000000000000000081525081526020016040518060400160405280600581526020017f486f74656c00000000000000000000000000000000000000000000000000000081525081525060099060116200044092919062000586565b503480156200044e57600080fd5b506040518060400160405280600e81526020017f52616e646f6d576f7264734e46540000000000000000000000000000000000008152506040518060400160405280600881526020017f524e444d575244530000000000000000000000000000000000000000000000008152508160009080519060200190620004d3929190620004f5565b508060019080519060200190620004ec929190620004f5565b505050620006df565b8280546200050390620006a9565b90600052602060002090601f01602090048101928262000527576000855562000573565b82601f106200054257805160ff191683800117855562000573565b8280016001018555821562000573579182015b828111156200057257825182559160200191906001019062000555565b5b509050620005829190620005ed565b5090565b828054828255906000526020600020908101928215620005da579160200282015b82811115620005d9578251829080519060200190620005c8929190620004f5565b5091602001919060010190620005a7565b5b509050620005e991906200060c565b5090565b5b8082111562000608576000816000905550600101620005ee565b5090565b5b8082111562000630576000818162000626919062000634565b506001016200060d565b5090565b5080546200064290620006a9565b6000825580601f1062000656575062000677565b601f016020900490600052602060002090810190620006769190620005ed565b5b50565b7f4e487b7100000000000000000000000000000000000000000000000000000000600052602260045260246000fd5b60006002820490506001821680620006c257607f821691505b60208210811415620006d957620006d86200067a565b5b50919050565b612fb380620006ef6000396000f3fe608060405234801561001057600080fd5b50600436106100f55760003560e01c806342842e0e11610097578063a22cb46511610066578063a22cb46514610284578063b88d4fde146102a0578063c87b56dd146102bc578063e985e9c5146102ec576100f5565b806342842e0e146101ea5780636352211e1461020657806370a082311461023657806395d89b4114610266576100f5565b8063095ea7b3116100d3578063095ea7b3146101785780631249c58b1461019457806323b872dd1461019e5780633e1831dd146101ba576100f5565b806301ffc9a7146100fa57806306fdde031461012a578063081812fc14610148575b600080fd5b610114600480360381019061010f9190611c6c565b61031c565b6040516101219190611cb4565b60405180910390f35b6101326103fe565b60405161013f9190611d68565b60405180910390f35b610162600480360381019061015d9190611dc0565b610490565b60405161016f9190611e2e565b60405180910390f35b610192600480360381019061018d9190611e75565b6104d6565b005b61019c6105ee565b005b6101b860048036038101906101b39190611eb5565b6106e8565b005b6101d460048036038101906101cf9190611dc0565b610748565b6040516101e19190611d68565b60405180910390f35b61020460048036038101906101ff9190611eb5565b610840565b005b610220600480360381019061021b9190611dc0565b610860565b60405161022d9190611e2e565b60405180910390f35b610250600480360381019061024b9190611f08565b610912565b60405161025d9190611f44565b60405180910390f35b61026e6109ca565b60405161027b9190611d68565b60405180910390f35b61029e60048036038101906102999190611f8b565b610a5c565b005b6102ba60048036038101906102b59190612100565b610a72565b005b6102d660048036038101906102d19190611dc0565b610ad4565b6040516102e39190611d68565b60405180910390f35b61030660048036038101906103019190612183565b610be7565b6040516103139190611cb4565b60405180910390f35b60007f80ac58cd000000000000000000000000000000000000000000000000000000007bffffffffffffffffffffffffffffffffffffffffffffffffffffffff1916827bffffffffffffffffffffffffffffffffffffffffffffffffffffffff191614806103e757507f5b5e139f000000000000000000000000000000000000000000000000000000007bffffffffffffffffffffffffffffffffffffffffffffffffffffffff1916827bffffffffffffffffffffffffffffffffffffffffffffffffffffffff1916145b806103f757506103f682610c7b565b5b9050919050565b60606000805461040d906121f2565b80601f0160208091040260200160405190810160405280929190818152602001828054610439906121f2565b80156104865780601f1061045b57610100808354040283529160200191610486565b820191906000526020600020905b81548152906001019060200180831161046957829003601f168201915b5050505050905090565b600061049b82610ce5565b6004600083815260200190815260200160002060009054906101000a900473ffffffffffffffffffffffffffffffffffffffff169050919050565b60006104e182610860565b90508073ffffffffffffffffffffffffffffffffffffffff168373ffffffffffffffffffffffffffffffffffffffff161415610552576040517f08c379a000000000000000000000000000000000000000000000000000000000815260040161054990612296565b60405180910390fd5b8073ffffffffffffffffffffffffffffffffffffffff16610571610d30565b73ffffffffffffffffffffffffffffffffffffffff1614806105a0575061059f8161059a610d30565b610be7565b5b6105df576040517f08c379a00000000000000000000000000000000000000000000000000000000081526004016105d690612328565b60405180910390fd5b6105e98383610d38565b505050565b60006105fa6007610df1565b9050600061060782610748565b9050600060088260405160200161061f929190612464565b604051602081830303815290604052905060006106648361063f84610dff565b60405160200161065092919061259d565b604051602081830303815290604052610dff565b9050600081604051602001610679919061262e565b60405160208183030381529060405290506106943386610f78565b61069e8582610f96565b7febddff399c2639d52aac2b426c49acb783ddd9ed4409880c784f3bd7f055859133866040516106cf929190612650565b60405180910390a16106e1600761100a565b5050505050565b6106f96106f3610d30565b82611020565b610738576040517f08c379a000000000000000000000000000000000000000000000000000000000815260040161072f906126eb565b60405180910390fd5b6107438383836110b5565b505050565b6060600061077c6107588461131c565b6040516020016107689190612757565b60405160208183030381529060405261147d565b90506009805490508161078f91906127a8565b9050600981815481106107a5576107a46127d9565b5b9060005260206000200180546107ba906121f2565b80601f01602080910402602001604051908101604052809291908181526020018280546107e6906121f2565b80156108335780601f1061080857610100808354040283529160200191610833565b820191906000526020600020905b81548152906001019060200180831161081657829003601f168201915b5050505050915050919050565b61085b83838360405180602001604052806000815250610a72565b505050565b6000806002600084815260200190815260200160002060009054906101000a900473ffffffffffffffffffffffffffffffffffffffff169050600073ffffffffffffffffffffffffffffffffffffffff168173ffffffffffffffffffffffffffffffffffffffff161415610909576040517f08c379a000000000000000000000000000000000000000000000000000000000815260040161090090612854565b60405180910390fd5b80915050919050565b60008073ffffffffffffffffffffffffffffffffffffffff168273ffffffffffffffffffffffffffffffffffffffff161415610983576040517f08c379a000000000000000000000000000000000000000000000000000000000815260040161097a906128e6565b60405180910390fd5b600360008373ffffffffffffffffffffffffffffffffffffffff1673ffffffffffffffffffffffffffffffffffffffff168152602001908152602001600020549050919050565b6060600180546109d9906121f2565b80601f0160208091040260200160405190810160405280929190818152602001828054610a05906121f2565b8015610a525780601f10610a2757610100808354040283529160200191610a52565b820191906000526020600020905b815481529060010190602001808311610a3557829003601f168201915b5050505050905090565b610a6e610a67610d30565b83836114b0565b5050565b610a83610a7d610d30565b83611020565b610ac2576040517f08c379a0000000000000000000000000000000000000000000000000000000008152600401610ab9906126eb565b60405180910390fd5b610ace8484848461161d565b50505050565b6060610adf82610ce5565b6000600660008481526020019081526020016000208054610aff906121f2565b80601f0160208091040260200160405190810160405280929190818152602001828054610b2b906121f2565b8015610b785780601f10610b4d57610100808354040283529160200191610b78565b820191906000526020600020905b815481529060010190602001808311610b5b57829003601f168201915b505050505090506000610b89611679565b9050600081511415610b9f578192505050610be2565b600082511115610bd4578082604051602001610bbc929190612906565b60405160208183030381529060405292505050610be2565b610bdd84611690565b925050505b919050565b6000600560008473ffffffffffffffffffffffffffffffffffffffff1673ffffffffffffffffffffffffffffffffffffffff16815260200190815260200160002060008373ffffffffffffffffffffffffffffffffffffffff1673ffffffffffffffffffffffffffffffffffffffff16815260200190815260200160002060009054906101000a900460ff16905092915050565b60007f01ffc9a7000000000000000000000000000000000000000000000000000000007bffffffffffffffffffffffffffffffffffffffffffffffffffffffff1916827bffffffffffffffffffffffffffffffffffffffffffffffffffffffff1916149050919050565b610cee816116f8565b610d2d576040517f08c379a0000000000000000000000000000000000000000000000000000000008152600401610d2490612854565b60405180910390fd5b50565b600033905090565b816004600083815260200190815260200160002060006101000a81548173ffffffffffffffffffffffffffffffffffffffff021916908373ffffffffffffffffffffffffffffffffffffffff160217905550808273ffffffffffffffffffffffffffffffffffffffff16610dab83610860565b73ffffffffffffffffffffffffffffffffffffffff167f8c5be1e5ebec7d5bd14f71427d1e84f3dd0314c0f7b2291e5b200ac8c7c3b92560405160405180910390a45050565b600081600001549050919050565b6060600082511415610e2257604051806020016040528060008152509050610f73565b6000604051806060016040528060408152602001612f3e6040913990506000600360028551610e519190612959565b610e5b91906129af565b6004610e6791906129e0565b90506000602082610e789190612959565b67ffffffffffffffff811115610e9157610e90611fd5565b5b6040519080825280601f01601f191660200182016040528015610ec35781602001600182028036833780820191505090505b509050818152600183018586518101602084015b81831015610f32576003830192508251603f8160121c168501518253600182019150603f81600c1c168501518253600182019150603f8160061c168501518253600182019150603f8116850151825360018201915050610ed7565b600389510660018114610f4c5760028114610f5c57610f67565b613d3d60f01b6002830352610f67565b603d60f81b60018303525b50505050508093505050505b919050565b610f92828260405180602001604052806000815250611764565b5050565b610f9f826116f8565b610fde576040517f08c379a0000000000000000000000000000000000000000000000000000000008152600401610fd590612aac565b60405180910390fd5b80600660008481526020019081526020016000209080519060200190611005929190611b5d565b505050565b6001816000016000828254019250508190555050565b60008061102c83610860565b90508073ffffffffffffffffffffffffffffffffffffffff168473ffffffffffffffffffffffffffffffffffffffff16148061106e575061106d8185610be7565b5b806110ac57508373ffffffffffffffffffffffffffffffffffffffff1661109484610490565b73ffffffffffffffffffffffffffffffffffffffff16145b91505092915050565b8273ffffffffffffffffffffffffffffffffffffffff166110d582610860565b73ffffffffffffffffffffffffffffffffffffffff161461112b576040517f08c379a000000000000000000000000000000000000000000000000000000000815260040161112290612b3e565b60405180910390fd5b600073ffffffffffffffffffffffffffffffffffffffff168273ffffffffffffffffffffffffffffffffffffffff16141561119b576040517f08c379a000000000000000000000000000000000000000000000000000000000815260040161119290612bd0565b60405180910390fd5b6111a68383836117bf565b6111b1600082610d38565b6001600360008573ffffffffffffffffffffffffffffffffffffffff1673ffffffffffffffffffffffffffffffffffffffff16815260200190815260200160002060008282546112019190612bf0565b925050819055506001600360008473ffffffffffffffffffffffffffffffffffffffff1673ffffffffffffffffffffffffffffffffffffffff16815260200190815260200160002060008282546112589190612959565b92505081905550816002600083815260200190815260200160002060006101000a81548173ffffffffffffffffffffffffffffffffffffffff021916908373ffffffffffffffffffffffffffffffffffffffff160217905550808273ffffffffffffffffffffffffffffffffffffffff168473ffffffffffffffffffffffffffffffffffffffff167fddf252ad1be2c89b69c2b068fc378daa952ba7f163c4a11628f55a4df523b3ef60405160405180910390a46113178383836117c4565b505050565b60606000821415611364576040518060400160405280600181526020017f30000000000000000000000000000000000000000000000000000000000000008152509050611478565b600082905060005b6000821461139657808061137f90612c24565b915050600a8261138f91906129af565b915061136c565b60008167ffffffffffffffff8111156113b2576113b1611fd5565b5b6040519080825280601f01601f1916602001820160405280156113e45781602001600182028036833780820191505090505b5090505b60008514611471576001826113fd9190612bf0565b9150600a8561140c91906127a8565b60306114189190612959565b60f81b81838151811061142e5761142d6127d9565b5b60200101907effffffffffffffffffffffffffffffffffffffffffffffffffffffffffffff1916908160001a905350600a8561146a91906129af565b94506113e8565b8093505050505b919050565b6000816040516020016114909190612c6d565b6040516020818303038152906040528051906020012060001c9050919050565b8173ffffffffffffffffffffffffffffffffffffffff168373ffffffffffffffffffffffffffffffffffffffff16141561151f576040517f08c379a000000000000000000000000000000000000000000000000000000000815260040161151690612cd0565b60405180910390fd5b80600560008573ffffffffffffffffffffffffffffffffffffffff1673ffffffffffffffffffffffffffffffffffffffff16815260200190815260200160002060008473ffffffffffffffffffffffffffffffffffffffff1673ffffffffffffffffffffffffffffffffffffffff16815260200190815260200160002060006101000a81548160ff0219169083151502179055508173ffffffffffffffffffffffffffffffffffffffff168373ffffffffffffffffffffffffffffffffffffffff167f17307eab39ab6107e8899845ad3d59bd9653f200f220920489ca2b5937696c31836040516116109190611cb4565b60405180910390a3505050565b6116288484846110b5565b611634848484846117c9565b611673576040517f08c379a000000000000000000000000000000000000000000000000000000000815260040161166a90612d62565b60405180910390fd5b50505050565b606060405180602001604052806000815250905090565b606061169b82610ce5565b60006116a5611679565b905060008151116116c557604051806020016040528060008152506116f0565b806116cf8461131c565b6040516020016116e0929190612906565b6040516020818303038152906040525b915050919050565b60008073ffffffffffffffffffffffffffffffffffffffff166002600084815260200190815260200160002060009054906101000a900473ffffffffffffffffffffffffffffffffffffffff1673ffffffffffffffffffffffffffffffffffffffff1614159050919050565b61176e8383611960565b61177b60008484846117c9565b6117ba576040517f08c379a00000000000000000000000000000000000000000000000000000000081526004016117b190612d62565b60405180910390fd5b505050565b505050565b505050565b60006117ea8473ffffffffffffffffffffffffffffffffffffffff16611b3a565b15611953578373ffffffffffffffffffffffffffffffffffffffff1663150b7a02611813610d30565b8786866040518563ffffffff1660e01b81526004016118359493929190612dd7565b602060405180830381600087803b15801561184f57600080fd5b505af192505050801561188057506040513d601f19601f8201168201806040525081019061187d9190612e38565b60015b611903573d80600081146118b0576040519150601f19603f3d011682016040523d82523d6000602084013e6118b5565b606091505b506000815114156118fb576040517f08c379a00000000000000000000000000000000000000000000000000000000081526004016118f290612d62565b60405180910390fd5b805181602001fd5b63150b7a0260e01b7bffffffffffffffffffffffffffffffffffffffffffffffffffffffff1916817bffffffffffffffffffffffffffffffffffffffffffffffffffffffff191614915050611958565b600190505b949350505050565b600073ffffffffffffffffffffffffffffffffffffffff168273ffffffffffffffffffffffffffffffffffffffff1614156119d0576040517f08c379a00000000000000000000000000000000000000000000000000000000081526004016119c790612eb1565b60405180910390fd5b6119d9816116f8565b15611a19576040517f08c379a0000000000000000000000000000000000000000000000000000000008152600401611a1090612f1d565b60405180910390fd5b611a25600083836117bf565b6001600360008473ffffffffffffffffffffffffffffffffffffffff1673ffffffffffffffffffffffffffffffffffffffff1681526020019081526020016000206000828254611a759190612959565b92505081905550816002600083815260200190815260200160002060006101000a81548173ffffffffffffffffffffffffffffffffffffffff021916908373ffffffffffffffffffffffffffffffffffffffff160217905550808273ffffffffffffffffffffffffffffffffffffffff16600073ffffffffffffffffffffffffffffffffffffffff167fddf252ad1be2c89b69c2b068fc378daa952ba7f163c4a11628f55a4df523b3ef60405160405180910390a4611b36600083836117c4565b5050565b6000808273ffffffffffffffffffffffffffffffffffffffff163b119050919050565b828054611b69906121f2565b90600052602060002090601f016020900481019282611b8b5760008555611bd2565b82601f10611ba457805160ff1916838001178555611bd2565b82800160010185558215611bd2579182015b82811115611bd1578251825591602001919060010190611bb6565b5b509050611bdf9190611be3565b5090565b5b80821115611bfc576000816000905550600101611be4565b5090565b6000604051905090565b600080fd5b600080fd5b60007fffffffff0000000000000000000000000000000000000000000000000000000082169050919050565b611c4981611c14565b8114611c5457600080fd5b50565b600081359050611c6681611c40565b92915050565b600060208284031215611c8257611c81611c0a565b5b6000611c9084828501611c57565b91505092915050565b60008115159050919050565b611cae81611c99565b82525050565b6000602082019050611cc96000830184611ca5565b92915050565b600081519050919050565b600082825260208201905092915050565b60005b83811015611d09578082015181840152602081019050611cee565b83811115611d18576000848401525b50505050565b6000601f19601f8301169050919050565b6000611d3a82611ccf565b611d448185611cda565b9350611d54818560208601611ceb565b611d5d81611d1e565b840191505092915050565b60006020820190508181036000830152611d828184611d2f565b905092915050565b6000819050919050565b611d9d81611d8a565b8114611da857600080fd5b50565b600081359050611dba81611d94565b92915050565b600060208284031215611dd657611dd5611c0a565b5b6000611de484828501611dab565b91505092915050565b600073ffffffffffffffffffffffffffffffffffffffff82169050919050565b6000611e1882611ded565b9050919050565b611e2881611e0d565b82525050565b6000602082019050611e436000830184611e1f565b92915050565b611e5281611e0d565b8114611e5d57600080fd5b50565b600081359050611e6f81611e49565b92915050565b60008060408385031215611e8c57611e8b611c0a565b5b6000611e9a85828601611e60565b9250506020611eab85828601611dab565b9150509250929050565b600080600060608486031215611ece57611ecd611c0a565b5b6000611edc86828701611e60565b9350506020611eed86828701611e60565b9250506040611efe86828701611dab565b9150509250925092565b600060208284031215611f1e57611f1d611c0a565b5b6000611f2c84828501611e60565b91505092915050565b611f3e81611d8a565b82525050565b6000602082019050611f596000830184611f35565b92915050565b611f6881611c99565b8114611f7357600080fd5b50565b600081359050611f8581611f5f565b92915050565b60008060408385031215611fa257611fa1611c0a565b5b6000611fb085828601611e60565b9250506020611fc185828601611f76565b9150509250929050565b600080fd5b600080fd5b7f4e487b7100000000000000000000000000000000000000000000000000000000600052604160045260246000fd5b61200d82611d1e565b810181811067ffffffffffffffff8211171561202c5761202b611fd5565b5b80604052505050565b600061203f611c00565b905061204b8282612004565b919050565b600067ffffffffffffffff82111561206b5761206a611fd5565b5b61207482611d1e565b9050602081019050919050565b82818337600083830152505050565b60006120a361209e84612050565b612035565b9050828152602081018484840111156120bf576120be611fd0565b5b6120ca848285612081565b509392505050565b600082601f8301126120e7576120e6611fcb565b5b81356120f7848260208601612090565b91505092915050565b6000806000806080858703121561211a57612119611c0a565b5b600061212887828801611e60565b945050602061213987828801611e60565b935050604061214a87828801611dab565b925050606085013567ffffffffffffffff81111561216b5761216a611c0f565b5b612177878288016120d2565b91505092959194509250565b6000806040838503121561219a57612199611c0a565b5b60006121a885828601611e60565b92505060206121b985828601611e60565b9150509250929050565b7f4e487b7100000000000000000000000000000000000000000000000000000000600052602260045260246000fd5b6000600282049050600182168061220a57607f821691505b6020821081141561221e5761221d6121c3565b5b50919050565b7f4552433732313a20617070726f76616c20746f2063757272656e74206f776e6560008201527f7200000000000000000000000000000000000000000000000000000000000000602082015250565b6000612280602183611cda565b915061228b82612224565b604082019050919050565b600060208201905081810360008301526122af81612273565b9050919050565b7f4552433732313a20617070726f76652063616c6c6572206973206e6f7420746f60008201527f6b656e206f776e6572206e6f7220617070726f76656420666f7220616c6c0000602082015250565b6000612312603e83611cda565b915061231d826122b6565b604082019050919050565b6000602082019050818103600083015261234181612305565b9050919050565b600081905092915050565b60008190508160005260206000209050919050565b60008154612375816121f2565b61237f8186612348565b9450600182166000811461239a57600181146123ab576123de565b60ff198316865281860193506123de565b6123b485612353565b60005b838110156123d6578154818901526001820191506020810190506123b7565b838801955050505b50505092915050565b60006123f282611ccf565b6123fc8185612348565b935061240c818560208601611ceb565b80840191505092915050565b7f3c2f746578743e3c2f7376673e00000000000000000000000000000000000000600082015250565b600061244e600d83612348565b915061245982612418565b600d82019050919050565b60006124708285612368565b915061247c82846123e7565b915061248782612441565b91508190509392505050565b7f7b226e616d65223a202200000000000000000000000000000000000000000000600082015250565b60006124c9600a83612348565b91506124d482612493565b600a82019050919050565b7f222c20226465736372697074696f6e223a20224e6f696365222c2022696d616760008201527f65223a2022646174613a696d6167652f7376672b786d6c3b6261736536342c00602082015250565b600061253b603f83612348565b9150612546826124df565b603f82019050919050565b7f227d000000000000000000000000000000000000000000000000000000000000600082015250565b6000612587600283612348565b915061259282612551565b600282019050919050565b60006125a8826124bc565b91506125b482856123e7565b91506125bf8261252e565b91506125cb82846123e7565b91506125d68261257a565b91508190509392505050565b7f646174613a6170706c69636174696f6e2f6a736f6e3b6261736536342c000000600082015250565b6000612618601d83612348565b9150612623826125e2565b601d82019050919050565b60006126398261260b565b915061264582846123e7565b915081905092915050565b60006040820190506126656000830185611e1f565b6126726020830184611f35565b9392505050565b7f4552433732313a2063616c6c6572206973206e6f7420746f6b656e206f776e6560008201527f72206e6f7220617070726f766564000000000000000000000000000000000000602082015250565b60006126d5602e83611cda565b91506126e082612679565b604082019050919050565b60006020820190508181036000830152612704816126c8565b9050919050565b7f574f524400000000000000000000000000000000000000000000000000000000600082015250565b6000612741600483612348565b915061274c8261270b565b600482019050919050565b600061276282612734565b915061276e82846123e7565b915081905092915050565b7f4e487b7100000000000000000000000000000000000000000000000000000000600052601260045260246000fd5b60006127b382611d8a565b91506127be83611d8a565b9250826127ce576127cd612779565b5b828206905092915050565b7f4e487b7100000000000000000000000000000000000000000000000000000000600052603260045260246000fd5b7f4552433732313a20696e76616c696420746f6b656e2049440000000000000000600082015250565b600061283e601883611cda565b915061284982612808565b602082019050919050565b6000602082019050818103600083015261286d81612831565b9050919050565b7f4552433732313a2061646472657373207a65726f206973206e6f74206120766160008201527f6c6964206f776e65720000000000000000000000000000000000000000000000602082015250565b60006128d0602983611cda565b91506128db82612874565b604082019050919050565b600060208201905081810360008301526128ff816128c3565b9050919050565b600061291282856123e7565b915061291e82846123e7565b91508190509392505050565b7f4e487b7100000000000000000000000000000000000000000000000000000000600052601160045260246000fd5b600061296482611d8a565b915061296f83611d8a565b9250827fffffffffffffffffffffffffffffffffffffffffffffffffffffffffffffffff038211156129a4576129a361292a565b5b828201905092915050565b60006129ba82611d8a565b91506129c583611d8a565b9250826129d5576129d4612779565b5b828204905092915050565b60006129eb82611d8a565b91506129f683611d8a565b9250817fffffffffffffffffffffffffffffffffffffffffffffffffffffffffffffffff0483118215151615612a2f57612a2e61292a565b5b828202905092915050565b7f45524337323155524953746f726167653a2055524920736574206f66206e6f6e60008201527f6578697374656e7420746f6b656e000000000000000000000000000000000000602082015250565b6000612a96602e83611cda565b9150612aa182612a3a565b604082019050919050565b60006020820190508181036000830152612ac581612a89565b9050919050565b7f4552433732313a207472616e736665722066726f6d20696e636f72726563742060008201527f6f776e6572000000000000000000000000000000000000000000000000000000602082015250565b6000612b28602583611cda565b9150612b3382612acc565b604082019050919050565b60006020820190508181036000830152612b5781612b1b565b9050919050565b7f4552433732313a207472616e7366657220746f20746865207a65726f2061646460008201527f7265737300000000000000000000000000000000000000000000000000000000602082015250565b6000612bba602483611cda565b9150612bc582612b5e565b604082019050919050565b60006020820190508181036000830152612be981612bad565b9050919050565b6000612bfb82611d8a565b9150612c0683611d8a565b925082821015612c1957612c1861292a565b5b828203905092915050565b6000612c2f82611d8a565b91507fffffffffffffffffffffffffffffffffffffffffffffffffffffffffffffffff821415612c6257612c6161292a565b5b600182019050919050565b6000612c7982846123e7565b915081905092915050565b7f4552433732313a20617070726f766520746f2063616c6c657200000000000000600082015250565b6000612cba601983611cda565b9150612cc582612c84565b602082019050919050565b60006020820190508181036000830152612ce981612cad565b9050919050565b7f4552433732313a207472616e7366657220746f206e6f6e20455243373231526560008201527f63656976657220696d706c656d656e7465720000000000000000000000000000602082015250565b6000612d4c603283611cda565b9150612d5782612cf0565b604082019050919050565b60006020820190508181036000830152612d7b81612d3f565b9050919050565b600081519050919050565b600082825260208201905092915050565b6000612da982612d82565b612db38185612d8d565b9350612dc3818560208601611ceb565b612dcc81611d1e565b840191505092915050565b6000608082019050612dec6000830187611e1f565b612df96020830186611e1f565b612e066040830185611f35565b8181036060830152612e188184612d9e565b905095945050505050565b600081519050612e3281611c40565b92915050565b600060208284031215612e4e57612e4d611c0a565b5b6000612e5c84828501612e23565b91505092915050565b7f4552433732313a206d696e7420746f20746865207a65726f2061646472657373600082015250565b6000612e9b602083611cda565b9150612ea682612e65565b602082019050919050565b60006020820190508181036000830152612eca81612e8e565b9050919050565b7f4552433732313a20746f6b656e20616c7265616479206d696e74656400000000600082015250565b6000612f07601c83611cda565b9150612f1282612ed1565b602082019050919050565b60006020820190508181036000830152612f3681612efa565b905091905056fe4142434445464748494a4b4c4d4e4f505152535455565758595a6162636465666768696a6b6c6d6e6f707172737475767778797a303132333435363738392b2fa26469706673582212201d9ff6708710e821c7899e5adfdf079e2f1c4a3bedc4fe8993bf241625a8e39c64736f6c634300080900333c73766720786d6c6e733d27687474703a2f2f7777772e77332e6f72672f323030302f73766727207072657365727665417370656374526174696f3d27784d696e594d696e206d656574272076696577426f783d273020302033353020333530273e3c7374796c653e2e62617365207b2066696c6c3a2077686974653b20666f6e742d66616d696c793a2073657269663b20666f6e742d73697a653a20323470783b207d3c2f7374796c653e3c726563742077696474683d273130302527206865696768743d2731303025272066696c6c3d27677265656e27202f3e3c7465787420783d273530252720793d273530252720636c6173733d27626173652720646f6d696e616e742d626173656c696e653d276d6964646c652720746578742d616e63686f723d276d6964646c65273e",
  "linkReferences": {},
  "deployedLinkReferences": {}
}